:107C00001F92CDB7DEB7112484B714BE81FD06C024
:107C100083FF03C08983F4D08981E3D185E0809319
:107C2000810082E08093C00088E18093C10096E0EB
:107C30009093C20090E19093C400809360008EE026
:107C4000809360003B9A86E028E13EEF91E030931C
:107C500085002093840096BBB09BFECF339AA895F5
:107C60008150A9F7612C712C08E128E0F22EEE2456
:107C7000E39435E0D32E41E1C42E13E08BD181345F
:107C800069F488D1898394D189818238F9F0813867
:107C900011F485E001C083E076D17BC0823411F419
:107CA00084E103C0853419F485E08ED172C0853536
:107CB00049F470D1B82E6ED16B2C712C782A660CD9
:107CC000771C66C0863521F484E07ED180E0E4CF65
:107CD000843609F03FC05ED15DD1982E5BD161142E
:107CE00080E7780618F4F30117BFE895A12CBB24B0
:107CF000B39450D1F50181935F019E12FACF6114C4
:107D0000F0E77F0618F0F30117BFE89551D107B6E9
:107D100000FCFDCFA301A0E0B1E08C9112969D0183
:107D200021503109F901208190E0922BFA010C01D8
:107D3000E7BEE89511244E5F5F4FA038F1E0BF0722
:107D400061F7F301D7BEE89507B600FCFDCFC7BECB
:107D5000E8951FC0843769F41DD11CD1B82E1AD103
:107D600027D1F30185913F010ED1BA94B110F9CF1B
:107D700010C0853739F41CD18EE105D185E903D1D6
:107D80008FE08ACF813521F400936000F09260008B
:107D90000FD180E1F8D072CF8EBD0DB407FEFDCFBC
:107DA0008EB50895289885E0F7DF80E0F5DF289A02
:107DB00081700895CF93C82F662321F060E086E09C
:107DC000F9DF289AEFDF8111FDCF28988C2FCF9112
:107DD000E3CFCF92DF92EF92FF926B017C0160E0E4
:107DE00083E0E8DF8E2DD8DF8D2DD6DF8C2DD4DF1C
:107DF00080E0D2DF289AFF90EF90DF90CF90089537
:107E00009F92AF92BF92CF92DF92EF92FF920F9329
:107E10001F93CF93DF9388E18093600010926000FE
:107E200084B18D6284B9289A2A9A8CB580658CBDFC
:107E300028988FE9B1DF80E0AFDF289A81508E3F2C
:107E400008F095C061E081E0B5DF80E0A5DF289A09
:107E500060E070E0CB01BDDF863409F088C061E0EE
:107E600070E080E090E0B5DF8C3409F080C062E023
:107E700070E080E090E0ADDF883509F078C066E022
:107E800070E080E090E0A5DF8A3309F070C069E01F
:107E900070E080E090E09DDF8A3309F068C067E021
:107EA00070E080E090E095DFC82F68E070E080E04F
:107EB00090E08FDFD0E0DC2FCC27C82BC0FD57C06F
:107EC000339AC12CD12C00E010E0BB24B39483E0A2
:107ED000A82E95E0992E0C171D0770F5B801665F66
:107EE0007F4F80E090E075DFE82EF12CB801655FF0
:107EF0007F4F80E090E06DDFF82AF8010701B7BE00
:107F0000E89511240E5F1F4FC8018F779927892BA1
:107F100019F00C171D07F9F6F601A7BEE89507B68C
:107F200000FCFDCFF60197BEE89507B600FCFDCF3B
:107F3000F0E8CF0ED11CCFCF339881E187BFE89511
:107F40002A9661E0C130D04810F482E501C088ED86
:107F500031DF80E021DF80E01FDF80E01DDF289A35
:107F600088E18093600088E080936000FFCFDF911C
:107F7000CF911F910F91FF90EF90DF90CF90BF9026
:107F8000AF909F9008959091C00095FFFCCF809393
:107F9000C6000895339A8091C00087FFFCCF80917E
:107FA000C00084FD01C0A8958091C600339A089551
:107FB000F1DF803239F088E18093600088E08093BF
:107FC0006000FFCF84E1DFCFCF93C82FE3DFC15044
:107FD000E9F7CF91EDCFE0E6F0E098E19083808380
:107FE0000895282EE0E6F0E088E180831082EE27F5
:047FF000FF270994CA
:027FFE0000057C
:0400000300007C007D
:00000001FF
