:1070000011E0A0E0B1E0E6E1FDE702C005900D92DD
:10701000A030B107D9F711E0A0E0B1E001C01D92A6
:10702000A43DB107E1F7112482E090E020E80FB61B
:10703000F89420936100809361000FBE14BE29E292
:1070400088E190E00FB6F894A895809360000FBE99
:107050002093600080ED97E09AD2A8951092CB0122
:107060001092CC011092CD011092CE011092CF015E
:107070001092D0011092D1011092D20184B18E628F
:1070800084B9249885B1857D85B92A9A8AE090E0F3
:107090007ED284E06FE5EBD281E06FE3E8D281E05D
:1070A000B3D2682F6B7F81E0E2D265D38DE1ACD2A1
:1070B000682F66608DE1DBD28CE1A6D2682F636019
:1070C0008CE1D5D286E0A0D2682F677D606286E031
:1070D000CED286E099D280E097D2682F6C6080E0B3
:1070E000C6D287E060E7C3D285E06CE4C0D286E018
:1070F0008BD2682F676086E0BAD23DD38DE184D20F
:10710000682F64608DE1B3D28CE17ED2682F6F630B
:107110008CE1ADD282EE68D281EE66D2BFD280E041
:1071200073D2682F6E7F80E0A2D282E00FEF1CEF57
:1071300021EE38EA48EA50E060E070E0BDD2A89560
:1071400080E091E060E070E043E050E022EB3AE361
:1071500073D5A8958091000180930D019FEF9093C6
:10716000110183E080930C0182E080930B019093E6
:10717000020190930F0187E068E065D3882309F44A
:1071800049D310920F01809100018F3F21F581E0DA
:107190000FEF1CEF21EE38EA48EA50E060E070E0C3
:1071A0008BD283E064E04FD3882309F427D3809106
:1071B0003201809300018F3F09F420D380910001B8
:1071C000F999FECF1FBA12BC11BC80BD0FB6F8945E
:1071D000FA9AF99A0FBE8091000180930D01282F31
:1071E00030E040E050E060E070E080E090E0198244
:1071F000ACEFAA83B1EEBB83E8EAEC83ED831E8299
:107200001F8218868824820EE1E0821608F0E0E0F2
:107210009A80F1E0931608F0F0E0AE2FA90DE1E0BE
:10722000A91508F0E0E0FE2B9A2EAB80A1E0A41691
:1072300008F0A0E0FA0DE1E0FA1508F0E0E0AE2B6E
:10724000AF2EBC80F1E0B51608F0F0E0AB0DE1E048
:10725000AB1508F0E0E0FE2BBA2ECD80A1E0C616FB
:1072600008F0A0E0FC0DE1E0FC1508F0E0E0AE2B3A
:10727000CF2EDE80F1E0D71608F0F0E0AD0DE1E0B2
:10728000AD1508F0E0E0FE2BDA2EEF80E1E0E81625
:1072900008F0E0E09F2F9E0D81E09E1508F080E051
:1072A0007E2F782BF8847F0D80E084019501A60164
:1072B000692F02D280910001282F30E040E050E099
:1072C00060E070E080E090E01986FCEFFA87A1EEC4
:1072D000AB87B8EABC87BD871E861F86188A8824BC
:1072E000820EE1E0821608F0E0E09A84F1E0931665
:1072F00008F0F0E0AE2FA90DE1E0A91508F0E0E0FC
:10730000FE2B9A2EAB84A1E0A41608F0A0E0FA0DA3
:10731000E1E0FA1508F0E0E0AE2BAF2EBC84F1E01E
:10732000B51608F0F0E0AB0DE1E0AB1508F0E0E0D9
:10733000FE2BBA2ECD84A1E0C61608F0A0E0FC0D0D
:10734000E1E0FC1508F0E0E0AE2BCF2EDE84F1E0AA
:10735000D71608F0F0E0AD0DE1E0AD1508F0E0E083
:10736000FE2BDA2EEF84E1E0E81608F0E0E09F2F34
:107370009E0D81E09E1508F080E07E2F782BF88826
:107380007F0D81E084019501A601692F95D183E0ED
:1073900091E06BE171E048E050E022EB3AE34CD43D
:1073A00080910C018F70806680930C0180910B019D
:1073B0008770806180930B0180910301909104019B
:1073C00090931301809312018DE06DE03CD28823ED
:1073D00009F420D2209134013091350180910501CA
:1073E0009091060128173907C9F420913601309190
:1073F000370180910701909108012817390771F42E
:1074000020913801309139018091090190910A0150
:107410002817390719F4BDD18111FCD140913201EF
:1074200050913301509304014093030120913401A2
:10743000309135013093060120930501809136018A
:107440009091370190930801809307018091380152
:107450009091390190930A0180930901B2E1EB2EDA
:10746000B1E0FB2E80910B018770806380930B014C
:10747000509313014093120130931501209314018E
:107480008824992400E91FEFA3E0AA2EBB24B3941B
:10749000F5E0CF2EE1E1DE2E4DC0F701958284822A
:1074A0008EE06FE0D0D1882309F4A8D1902F9059B5
:1074B0009F77E92FF0E0E55BFE4FA8E3B1E080E1C4
:1074C0000D9001928150E1F7903779F53FB7F8942C
:1074D000F999FECFF801A0925700E89507B600FC95
:1074E000FDCFA801ABE4B1E02C9111968C911197DE
:1074F00090E0982F8827820F911D1296FA010C01B7
:10750000B0925700E89511244E5F5F4FF1E0AB3C1D
:10751000BF0751F7F801C0925700E89507B600FC85
:10752000FDCFD0925700E8953FBF0894811C911C75
:10753000005F1F4F809107019091080188169906FE
:1075400008F4ABCFA89525D1882349F08BE191E0D1
:1075500063E071E048E050E029EB3AE389D34ED193
:1075600080E090E0F999FECF92BD81BDF89A80B598
:107570000895F999FECF1FBA92BD81BD60BD0FB6C7
:10758000F894FA9AF99A0FBE08950000089540E021
:1075900050E00BC020E030E000002F5F3F4F61E083
:1075A000243F3607C9F74F5F5F4F4817590790F3DD
:1075B00008950F931F93182F00E0E7DF17FD02C017
:1075C0002B9801C02B9AE1DF2D9A83B1110F829580
:1075D0008170182BDADF2D98D8DF0F5F083069F73C
:1075E000812F1F910F9108951F93182F2A9881E0E2
:1075F00090E0CDDF812FDDDF182F2A9A81E090E027
:10760000C6DF812F1F9108951F93182F2A9881E0BC
:1076100090E0BDDF812F8F71CCDF8FEFCADF182F95
:107620002A9A81E090E0B3DF812F1F9108950F9394
:107630001F93CF93DF93182FEB01042F2A9881E03B
:1076400090E0A5DF1F71812F8062B3DF182F03C088
:107650008991AFDF01500023D9F72A9A81E090E0A9
:1076600096DF812FDF91CF911F910F9108950F9396
:107670001F93182F062F2A9881E090E088DF1F7152
:10768000812F806296DF182F802F93DF2A9A81E066
:1076900090E07DDF812F1F910F91089580E0B4DF8E
:1076A00081FD09C080E0B0DF682F626080E0DFDF2D
:1076B00085E090E06CDF08957F928F929F92AF9269
:1076C000BF92CF92DF92EF92FF920F931F93DF93BF
:1076D000CF93CDB7DEB728970FB6F894DEBF0FBEB5
:1076E000CDBF782E480159016A017B01882381F4BE
:1076F0000093CB019092CC012093CD01B092CE01AA
:107700004093CF01D092D0016093D101F092D20189
:1077100089829A82AB82BC82CD82DE82EF82F88639
:1077200081E0871538F0872D865FBE016F5F7F4F40
:1077300045E07DDF82E068DF21E030E002C0220F1B
:10774000331F7A94E2F7682F622B82E090DF28964D
:107750000FB6F894DEBF0FBECDBFCF91DF911F9162
:107760000F91FF90EF90DF90CF90BF90AF909F90E0
:107770008F907F9008952A9881E090E008DF80E55F
:1077800018DF83E716DF2A9A81E090E000DF089592
:107790001895409107015091080184E0440F551F4E
:1077A0008A95E1F7E0E0F0E02FEF3FEF19C0849118
:1077B0002827822F82958227082E869586958025F8
:1077C000082E869580258770022E232F8695079494
:1077D0008795302D282706948795302528273196C0
:1077E000E417F50720F340E08091090190910A0128
:1077F0002817390709F441E0842F089528E088E12B
:1078000090E00FB6F894A895809360000FBE209387
:107810006000FFCFBEDF8823A1F0E0E0F0E080E869
:107820000FB6F89480936100E09361000FBE88E189
:107830000FB6F89480936000109260000FBE099517
:107840000895DCDF08952F923F924F925F926F92DE
:107850007F928F929F92AF92BF92CF92DF92EF92E0
:10786000FF920F931F93DF93CF93CDB7DEB7E297CD
:107870000FB6F894DEBF0FBECDBF6AA7809310018C
:10788000662469E0262E312C2C0E3D1E2E01089414
:10789000411C511CD101EBE0F1E080E201900D921E
:1078A0008150E1F7809100018C871091010179846A
:1078B0002D8529A7F3DE299881E090E068DE81EE2E
:1078C00093DE82EE91DE80E09FDE682F6E7F80E0A7
:1078D000CEDE30E040E050E060E070E080E090E03C
:1078E0001BA73CA74DA75EA76FA778AB89AB9AAB48
:1078F00088245CEF952E41EEA42E38EAB32E98EA48
:10790000C92EDD24EE24FF24012F080D81E001178C
:1079100008F080E0192D91E0ECA59E1608F090E0AB
:10792000E82FE10F81E0E11708F080E0982B1E2F8F
:107930002A2DE1E0FDA5AF1608F0E0E0920F81E00E
:10794000921708F080E0E82B292F3B2D91E08EA5BF
:10795000B81608F090E0E30F81E0E31708F080E04C
:10796000982B3E2F4C2DE1E0FFA5CF1608F0E0E06C
:10797000940F81E0941708F080E0E82B492F5D2DEB
:1079800091E088A9D81608F090E0E50F81E0E517AE
:1079900008F080E0982B5E2F6E2D81E0E9A9EE16AD
:1079A00008F080E0E92FE60F91E0E61708F090E09C
:1079B000892B8F0D09831A832B833C834D835E8330
:1079C000EF8388878AE0B20145E031DE80E1B201D1
:1079D00045E02DDEF9A5FF3F11F010EA01C010EBE4
:1079E00076947694769428E0720E2A9881E090E05E
:1079F000CEDD812FDEDD81017101E70CF11C04C0B9
:107A0000F80181918F01D5DD0E151F05C9F72A9A5E
:107A100081E090E0BCDD299A81E090E0B8DD299812
:107A200081E090E0B4DD8FEFDFDD8073E1F387E08C
:107A300060E71DDE84FF02C081EED6DD2FDE80E030
:107A4000E3DD682F616080E012DE87E060E70FDE33
:107A50000091CB011091CC012091CD013091CE014C
:107A60004091CF015091D0016091D1017091D2012C
:107A7000802F812B822B832B842B852B862B872B8E
:107A800061F009831A832B833C834D835E836F836C
:107A900078878AE0B20145E0CADD82EEA5DD81EE9D
:107AA000A3DD299A81E090E072DDAA24BB24A89589
:107AB000CC24DD24A89587E1A7DD80FD8BC08FEF66
:107AC00093DDE82EE694F7E0EF22EF1609F482C08A
:107AD0002A9881E090E05BDD80E66BDD8FEF69DD69
:107AE000F82E2A9A81E090E052DD20E22F1518F45A
:107AF00082EE7ADDFF242A9881E090E048DD81E67D
:107B000058DD0BE211E006C08FEF53DDF8018193E1
:107B10008F01FA94FF20C1F72A9A81E090E037DDC7
:107B200087E060E7A4DD2A9881E090E030DD8E2DCB
:107B3000886A3FDD8E2D3DDD2A9A81E090E027DDC9
:107B400080912B018770823009F047C090912F01FE
:107B500080910001981709F03DC080912C01877039
:107B6000833009F037C080913001FAA58F1709F0F2
:107B700031C040913201242F332727FD3095809169
:107B8000020190E001972817390714F5242F2F5F81
:107B90002093020140912D0140930101F999FECFFC
:107BA0001FBA81E090E092BD81BD40BD0FB6F89450
:107BB000FA9AF99A0FBEF999FECF1FBA82E090E0C7
:107BC00092BD81BD20BD0FB6F894FA9AF99A0FBE06
:107BD00081E019C081E090E0DADC0894C11CD11C7E
:107BE00024E6C216D10409F065CF0894A11CB11C8B
:107BF00034E1A316B10409F05ACF63944AE0641645
:107C000009F048CE80E0E2960FB6F894DEBF0FBED2
:107C1000CDBFCF91DF911F910F91FF90EF90DF903B
:107C2000CF90BF90AF909F908F907F906F905F901C
:107C30004F903F902F900895A0E0B0E0E2E2FEE385
:107C40000C945E3E7C01EB018A01690109C0CE0102
:107C50002196F6010995F70181937F0101501040AB
:107C600001151105A1F7CDB7DEB7E8E00C947A3E17
:107C7000A0E0B0E0EEE3FEE30C945E3EEC017B019D
:107C80008A01690109C0CE012196F70161917F0146
:107C9000F60109950150104001151105A1F7CDB766
:107CA000DEB7E8E00C947A3E2F923F924F925F92BB
:107CB0006F927F928F929F92AF92BF92CF92DF92FC
:107CC000EF92FF920F931F93CF93DF93CDB7DEB761
:107CD000CA1BDB0B0FB6F894DEBF0FBECDBF0994F5
:107CE0002A88398848885F846E847D848C849B844C
:107CF000AA84B984C884DF80EE80FD800C811B815A
:107D0000AA81B981CE0FD11D0FB6F894DEBF0FBE88
:067D1000CDBFED01089556
:040000030000700089
:00000001FF
