:1070000011E0A0E0B1E0E8EFFCE702C005900D92CE
:10701000A030B107D9F711E0A0E0B1E001C01D92A6
:10702000A83DB107E1F711248091610090E08F70D5
:107030009070909301018093000182E090E020E83D
:107040000FB6F89420936100809361000FBE14BEC8
:1070500029E288E190E00FB6F894A895809360004B
:107060000FBE20936000A8951092CF011092D0011E
:107070001092D1011092D2011092D3011092D4013A
:107080001092D5011092D60184B18E6284B92498F1
:1070900085B1857D85B92A9A8AE0B1D184E06FE512
:1070A00015D281E06BE312D285E06CE40FD286E06A
:1070B000DED1682F607D676286E008D280E0D7D19C
:1070C000682F6C6080E002D287E060E7FFD12A98E9
:1070D00081E095D180E5A2D183E7A0D12A9A81E011
:1070E0008ED18DE1C4D1682F66608DE1EFD18CE146
:1070F000BED1682F6F638CE1E9D182EEAAD181EE17
:10710000A8D1F9D180E0B3D1682F6E7F80E0DED1C5
:1071100082E00FEF1CEF21EE38EA48EA50E060E031
:1071200070E0F6D1A89582E091E060E070E043E085
:1071300050E02AEE39E369D5A89580910201809349
:107140000E0180930D0143D22FEF20931301809104
:10715000110192E0909310012093040188708360E4
:107160008093110120930F0187E068E03ED38823CC
:1071700009F41ED310920F01809102018F3F09F094
:1071800038C081E00FEF1CEF21EE38EA48EA50E00A
:1071900060E070E0BDD183E064E027D3882309F488
:1071A000FBD280913201829586958770813019F4E7
:1071B0008091350105C0882329F485E391E007D546
:1071C00080930201809102018F3F09F4E5D2809102
:1071D0000201F999FECF1FBA12BC11BC80BD0FB6D7
:1071E000F894FA9AF99A0FBE80930E0180930D01DC
:1071F000EED185E091E06BE171E048E050E02AEEED
:1072000039E303D590911101987180911001877035
:10721000806280931001946C90931101809105011C
:1072200090910601909315018093140180910701BC
:1072300090910801909317018093160180E061E01E
:10724000D4D2882309F4B4D2209137013091380187
:10725000809107019091080128173907C9F42091FE
:10726000390130913A018091090190910A01281762
:10727000390771F420913B0130913C0180910B0161
:1072800090910C012817390719F451D2811190D22D
:10729000409135015091360150930601409305010C
:1072A0002091370130913801309308012093070174
:1072B0008091390190913A0190930A0180930901DC
:1072C00080913B0190913C0190930C0180930B01C4
:1072D000F4E1EF2EF1E0FF2E8091100187708063C2
:1072E00080931001509315014093140130931701BE
:1072F00020931601C0E0D0E000E91FEFBB24B39457
:10730000E5E0CE2E71E1D72E4DC0F701D583C483C1
:1073100082E063E06AD2882309F43ED2902F90592C
:107320009F77E92FF0E0E15BFE4FABE3B1E080E156
:107330000D9001928150E1F7903709F030C03FB7CE
:10734000F894F999FECF83E0F80180935700E8950F
:1073500007B600FCFDCFA801AFE4B1E02C91119677
:107360008C91119790E0982F8827820F911D12968B
:10737000FA010C01B0925700E89511244E5F5F4F5F
:10738000F1E0AF3CBF0751F7F801C0925700E89514
:1073900007B600FCFDCFD0925700E8953FBF21967D
:1073A000005F1F4F8091090190910A01C817D9070A
:1073B00008F4ABCFA895BBD1882349F08BE191E0CD
:1073C00065E071E048E050E021EF39E33AD4E4D1E0
:1073D00080E090E0F999FECF92BD81BDF89A80B52A
:1073E0000895F999FECF1FBA92BD81BD60BD0FB659
:1073F000F894FA9AF99A0FBE08950000089590E063
:107400000AC020E030E000002F5F3F4F41E0243F02
:107410003407C9F79F5F9817A0F308950F931F9340
:10742000182F00E0EADF17FD02C02B9801C02B9A4D
:10743000E4DF2D9A83B1110F82958170182BDDDF67
:107440002D98DBDF0F5F083069F7812F1F910F91B7
:1074500008951F93182F2A9881E0D1DF812FDEDF56
:10746000182F2A9A81E0CBDF812F1F9108951F9357
:10747000182F2A9881E0C3DF812F8F71CFDF8FEF24
:10748000CDDF182F2A9A81E0BADF812F1F9108954E
:107490000F931F93CF93DF93182FEB01042F2A989C
:1074A00081E0ADDF1F71812F8062B8DF182F03C02C
:1074B0008991B4DF01500023D9F72A9A81E09FDF38
:1074C000812FDF91CF911F910F9108950F931F93FB
:1074D000182F062F2A9881E092DF1F71812F80627A
:1074E0009DDF182F802F9ADF2A9A81E088DF812F75
:1074F0001F910F91089580E0BADF81FD08C080E000
:10750000B6DF682F626080E0E1DF85E078DF089514
:107510007F928F929F92AF92BF92CF92DF92EF9223
:10752000FF920F931F93DF93CF93CDB7DEB72897CA
:107530000FB6F894DEBF0FBECDBF782E48015901BB
:107540006A017B01882381F40093CF019092D001DE
:107550002093D101B092D2014093D301D092D401B3
:107560006093D501F092D60189829A82AB82BC8267
:10757000CD82DE82EF82F88681E0871538F0872D94
:10758000865FBE016F5F7F4F45E082DF82E06FDF85
:1075900021E030E002C0220F331F7A94E2F7682F17
:1075A000622B82E093DF28960FB6F894DEBF0FBE01
:1075B000CDBFCF91DF911F910F91FF90EF90DF90A2
:1075C000CF90BF90AF909F908F907F9008957F92C3
:1075D0008F929F92AF92BF92CF92DF92EF92FF92E3
:1075E0000F931F93DF93CF93CDB7DEB728970FB6D6
:1075F000F894DEBF0FBECDBF8F3F09F483C0082FC4
:1076000010E020E030E040E050E060E070E089838E
:107610001A832B833C834D835E836F837887882412
:107620003CEF932E21EEA22E98EAB92E88EAC82EBE
:10763000DD24EE24FF24080D81E09981091708F06C
:1076400080E0192D91E0AA819A1608F090E0E82FC9
:10765000E10F81E0E11708F080E0982B1E2F2A2D22
:1076600077247394BB81AB1608F07724920F81E0E6
:10767000921708F080E0782A292F3B2D91E0EC81C9
:10768000BE1608F090E0E72DE30F81E0E31708F065
:1076900080E0982B3E2F4C2D77247394FD81CF16DC
:1076A00008F07724940F81E0941708F080E0782A9E
:1076B000492F5D2D91E08E81D81608F090E0E72DDE
:1076C000E50F81E0E51708F080E0982B5E2F6E2D26
:1076D00077247394AF81EA1608F07724960F81E03F
:1076E000961708F080E0782A692F7F0C772D5901D2
:1076F0006A01E92E80E00CDF81E09501A6016E2D84
:10770000772D06DF28960FB6F894DEBF0FBECDBFEB
:10771000CF91DF911F910F91FF90EF90DF90CF906D
:10772000BF90AF909F908F907F9008951895409153
:10773000090150910A0164E0440F551F6A95E1F771
:10774000E0E0F0E02FEF3FEF19C084912827822F6F
:1077500082958227082E869586958025082E869507
:1077600080258770022E232F869507948795302DCC
:10777000282706948795302528273196E417F507A2
:1077800020F340E080910B0190910C0128173907FC
:1077900009F441E0842F089528E088E190E00FB6D5
:1077A000F894A895809360000FBE20936000FFCFEF
:1077B000BEDF8823C1F088E10FB6F89480936000A3
:1077C000109260000FBE809100019091010120E8AD
:1077D0000FB6F89420936100809361000FBEE0E043
:1077E000F0E009950895D8DF08952F923F924F92C7
:1077F0005F926F927F928F929F92AF92BF92CF9241
:10780000DF92EF92FF920F931F93DF93CF93CDB749
:10781000DEB7E3970FB6F894DEBF0FBECDBF6BA700
:10782000809312016624B9E02B2E312C2C0E3D1EC4
:107830002E010894411C511CD101EDE0F1E081E2E0
:1078400001900D928150E1F7109103017C842B850A
:107850002AA751DE299881E0D2DD81EEFADD82EEA1
:10786000F8DD80E004DE682F6E7F80E02FDE30E000
:1078700040E050E060E070E080E090E01CA73DA7B1
:107880004EA75FA768AB79AB8AAB9BAB8824ACEF04
:107890009A2EF1EEAF2EE8EABE2E78EAC72EDD244E
:1078A000EE24FF24012F080D81E0011708F080E08D
:1078B000192D91E0EDA59E1608F090E0E82FE10F5C
:1078C00081E0E11708F080E0982B1E2F2A2DE1E0DF
:1078D000FEA5AF1608F0E0E0920F81E0921708F0E5
:1078E00080E0E82B292F3B2D91E08FA5B81608F0FA
:1078F00090E0E30F81E0E31708F080E0982B3E2F43
:107900004C2DE1E0F8A9CF1608F0E0E0940F81E0FB
:10791000941708F080E0E82B492F5D2D91E089A9AC
:10792000D81608F090E0E50F81E0E51708F080E058
:10793000982B5E2F6E2D81E0EAA9EE1608F080E00C
:10794000E92FE60F91E0E61708F090E0892B8F0D04
:1079500009831A832B833C834D835E83EF8388875F
:107960008AE0B20145E094DD80E1B20145E090DDBE
:10797000FAA5FF3F11F010EA01C010EB769476945F
:10798000769427E0720E2A9881E039DD812F46DD5A
:1079900081017101E70CF11C04C0F80181918F0194
:1079A0003DDD0E151F05C9F72A9A81E028DD299AC9
:1079B00081E025DD299881E022DD8FEF4ADD8073AB
:1079C000E1F387E060E782DD84FF02C081EE41DD04
:1079D00092DD80E04CDD682F616080E077DD87E03C
:1079E00060E774DD0091CF011091D0012091D101A9
:1079F0003091D2014091D3015091D4016091D501D1
:107A00007091D601802F812B822B832B842B852B89
:107A1000862B872B61F009831A832B833C834D834C
:107A20005E836F8378878AE0B20145E031DD82EEC4
:107A300010DD81EE0EDD299A81E0E1DCCC24A895F1
:107A4000DD24A89587E113DD80FD96C08FEF01DD71
:107A5000E82EE694F7E0EF22EF1609F48DC02A989D
:107A600081E0CDDC80E6DADC8FEFD8DCF82E2A9AD4
:107A700081E0C5DC20E22F1518F482EEEADCFF2459
:107A80002A9881E0BCDC81E6C9DC0EE211E006C088
:107A90008FEFC4DCF80181938F01FA94FF20C1F7C6
:107AA0002A9A81E0ACDC87E060E710DD2A9881E06B
:107AB000A6DC8E2D886AB2DC8E2DB0DC2A9A81E09D
:107AC0009EDC809131018770823009F057C090911F
:107AD000300180910201981709F04EC08091320167
:107AE000682F70E0CB0187709070039709F034C065
:107AF00080913301883009F02FC040913501242F47
:107B0000332727FD30958091040190E001972817D5
:107B1000390714F5242F2F5F2093040180912F0142
:107B200080930301F999FECF1FBA41E050E052BDA6
:107B300041BD80BD0FB6F894FA9AF99A0FBEF99933
:107B4000FECF1FBA82E090E092BD81BD20BD0FB68E
:107B5000F894FA9AF99A0FBE8091110190E0862765
:107B6000972787709070892B39F4809133019BA5FA
:107B7000891711F481E012C081E041DCD394E4E67E
:107B8000DE1609F05ECFC394F4E1CF1609F057CFAB
:107B900063942AE0621609F04FCE80E0E3960FB6B8
:107BA000F894DEBF0FBECDBFCF91DF911F910F9133
:107BB000FF90EF90DF90CF90BF90AF909F908F900D
:107BC0007F906F905F904F903F902F900895FC01B1
:107BD00088279927E89421912032E9F3293010F081
:107BE0002E30C8F32B3241F02D3239F4689404C0A2
:107BF0000E943D3E820F911D219120532A30C0F3F7
:107C00001EF4909581959F4F0895A0E0B0E0EBE0C1
:107C1000FEE30C944F3E7C01EB018A01690109C02F
:107C2000CE012196F6010995F70181937F0101505C
:107C3000104001151105A1F7CDB7DEB7E8E00C94AF
:107C40006B3EA0E0B0E0E7E2FEE30C944F3EEC01B7
:107C50007B018A01690109C0CE012196F70161917A
:107C60007F01F60109950150104001151105A1F79A
:107C7000CDB7DEB7E8E00C946B3E7AE0979F902D8D
:107C8000879F802D910D112408952F923F924F923E
:107C90005F926F927F928F929F92AF92BF92CF929C
:107CA000DF92EF92FF920F931F93CF93DF93CDB7A5
:107CB000DEB7CA1BDB0B0FB6F894DEBF0FBECDBF1D
:107CC00009942A88398848885F846E847D848C84EE
:107CD0009B84AA84B984C884DF80EE80FD800C81F7
:107CE0001B81AA81B981CE0FD11D0FB6F894DEBFDA
:087CF0000FBECDBFED010895A8
:040000030000700089
:00000001FF
